:0C00000045C041C1FDCFE8C0FBCFFACFE6
:10000C00F9CFF8CFF7CFF6CFF5CF69C0F3CF8CC0CF
:10001C00F1CFF0CFEFCFEECFEDCF0000000000001E
:10002C0000000000000048756D6964697479313D09
:10003C0025372E32660048756D6964697479323DD6
:10004C0025372E3266004772617068313D25640099
:10005C004772617068323D2564002D4E414E0000A0
:10006C0001002D4E414E00494E4600000100020099
:10007C0026000A0004002800010068026C00000041
:10008C00F894EE27ECBBF1E0FBBFEBBFE5BFF8E16A
:10009C00F1BDE1BD8DE0A2E0BB27ED938A95E9F7B8
:1000AC0080E094E0A0E6ED930197E9F7E8E7F0E053
:1000BC0085919591009761F0A591B591059015905A
:1000CC00BF01F00105900D920197E1F7FB01F0CF14
:1000DC00EFE5EDBFE4E0EEBFCCE8D1E0ECC0F9D445
:1000EC0042D91BB10CB1E12FEC71E1F4E091FE01AE
:1000FC00EF5FE093FE01F3D4E254FE4F0083A09136
:10010C00FE01A03419F4E0E0E093FE01A09100029E
:10011C00AF5FA0930002A03429F4E0E0E09300026A
:10012C00689420F82AD919C0D4D4DCD4E030A9F0D2
:10013C00D9D4E150E0936702E0916602EF5FE0935F
:10014C006602CDD4EF5FFD4FE081ECB9A091660261
:10015C00A43619F4E0E0E0936602E991EFBFF9915F
:10016C00E991A9911895AA93A0916702A436E1F39D
:10017C00F894B8D4E03011F45D9916C0E0916502A2
:10018C00EF5FE0936502ABD4EF5FFD4FA881A083D6
:10019C00A0916502A43619F4E0E0E0936502A2D4C4
:1001AC00EF5FE093670202C0E881ECB978940CC071
:1001BC00AA93E881E7B983E08A95F1F7369A349BE4
:1001CC00FECF349AE4B1F5B1219608958ED4F201A4
:1001DC0031962F01EAE0F0E0E415F50509F04CC08A
:1001EC00F40131964F0144245524ECE3F0E0E8157A
:1001FC00F90509F041C0F50131965F01F301319623
:10020C003F01882499247FD419F482D4662477245E
:10021C00ECE3F0E0EA15FB0579F5F60131966F0198
:10022C00AA24BB24ECE0F0E0EC15FD0541F489D4E4
:10023C00A8E0B0E06FD88ED4A0E1B0E06BD8E8E1D4
:10024C00F0E0EC15FD05C1F4ACE0B0E07AD462D876
:10025C00A4E1B0E07FD45ED8ACEBB1E084D4CC2484
:10026C00DD24A091BC01B091BD01179729F4E0E009
:10027C00E093BC01E093BD0110C037D449D461D4E4
:10028C00A0E0B0E08CE094E474D47CD4E0E0F0E046
:10029C006CE074E41ED86DD486D4E991EFBFF9916B
:1002AC00E991B991A9919991899179916991F99073
:1002BC00199009901895E0E0E8BBE0EFE7BBE0E0AF
:1002CC00E5BBE4BBE2BBE1BBE3BFE2BFEFBDEEBD10
:1002DC00EDBDECBDE7BDE6BDEBBDEABDE9BDE8BDDE
:1002EC00E2BDEFE0E5BDE0E0E4BDE0E6E3BDEBB789
:1002FC00E064EBBFE2E0E5BFE0E4EABFE0E8E9BFC1
:10030C00E0E0EBB9E8EDEAB9E6E8E0BDE0E0E0BD3D
:10031C00ECE0E9B9E0E8E8B9E0E0E0BFE7B9E1E832
:10032C00E6B9E0E0EDB9E6BF789469D481F409D47C
:10033C00A0E0B0E081E194E41CD424D4E0E0F0E04F
:10034C0061E174E4C6D715D42ED459D4F1F300244A
:10035C000614070429F053D419F0D5D309F047C07B
:10036C00A8E0B0E0C3D77F936F93FF93EF93ACE01B
:10037C00B0E0BCD7AF91BF918F919F9145D4A0E0D5
:10038C00B0E0C8D7A0E1B0E0B1D77F936F93FF93F3
:10039C00EF93A4E1B0E0AAD7AF91BF918F919F9159
:1003AC0033D4A4E0B0E0B6D7A0E0B0E09FD7ACEA7D
:1003BC00B1E088D5ED93FC93A4E0B0E097D7AAEB1D
:1003CC00B1E080D5ED93FC93E2E5F0E026D428D49F
:1003DC002CD4A8EBBBE037D5ECE5F0E01ED42BD445
:1003EC0024D41ED4EE0FFF1F26D4EE0FFF1F9DCF7B
:1003FC00FFCF26D4AA81B7DEA881B981B4D32396C6
:10040C00089521D4E0E8EA83EFE3EB83AAD7EE85E5
:10041C00FF85EF3FAFEFFA0739F4E885F985FDD397
:10042C00A6E6B0E06BD27BC0EF3FAFE7FA0731F442
:10043C0010D4F3D3A7E6B0E061D271C0AB85A7307E
:10044C0010F0E6E0EB871B8507D411F009D4FCCF44
:10045C0015D481D719F430E003D41BC03B8513D4D9
:10046C0009F008F407C0FCD30ED418F016D41AD433
:10047C00FBCF08C008D428F410D41FD424D4315096
:10048C00F9CFEED3FBD324D41ED4FDD310F005D476
:10049C0009D410E0EB85E11710F120D424D418D442
:1004AC00DF01CB017ED2EC83FD836E837F83F5D39A
:1004BC0018D606D50E2F1DD423D4FF2766277727F1
:1004CC0038D50CD4C0D5E9D304D766D5FCD3E12FED
:1004DC001F5FE030F9F60DD4EEE2EC93DBCF15D4D0
:1004EC003197AA85A08330302CF43195A885B98535
:1004FC00EDE203C0A885B985EBE2EC9306D405D4F4
:10050C0009D479D6E05DDB01EC93FFD303D49DD6FF
:10051C00E05DDB01EC93A885B985E0E0EC9328D78E
:10052C00609608958DD3EF97619719D710E0FE016F
:10053C00E85AFF4F0190F081E02DE887F987FE0122
:10054C00EA5AFF4F0190F081E02DEE83FF83E7D351
:10055C00E0E0F0E0ED93FC93DE01A45ABF4F03D32F
:10056C003197E4912E2FE03009F4A4C1E12FE03053
:10057C0031F4253211F411E001C0D4D39AC1E13029
:10058C00B9F4253211F4CED393C112E0E0E0ED8B37
:10059C0000E02D3211F401E08CC12B3219F4EBE2A6
:1005AC00ED8B87C1203219F4E0E2ED8B82C102C0E1
:1005BC00E23039F450E013E0203311F4006879C1D3
:1005CC0002C0E33091F4203310F02A3308F007C056
:1005DC00AAE05A9F502DE22FE0535E0F6AC140E013
:1005EC002E3211F414E065C10FC0E43099F42033BD
:1005FC0010F02A3308F008C00062AAE04A9F402D90
:10060C00E22FE0534E0F55C12C3619F4026015E061
:10061C0050C103C0E53009F04CC1E22FE33639F488
:10062C0088D38ED386D3A481AA9391D341C1E534C8
:10063C0011F0E53609F402C0E63699F58ED392D363
:10064C0024D697D39BD3AD85AA2322F0AD89AB32A8
:10065C0031F012C095D301D48CD3EDE2ED8B07FFB2
:10066C0004C0ED89EA9373D307C0EE85FF853196FC
:10067C008CD33197AD89A08305FF46E0263639F43B
:10068C007FD31DD64A93AB89BC899BD107C078D345
:10069C0016D64A932A93AC89BD89B3DE5ED378D340
:1006AC0016C0E33721F46AD378D372D309C0E0378C
:1006BC0099F464D372D3AE85BF8537D11E2F0860F1
:1006CC000F77403011F0411708F001C0142F40E0B3
:1006DC00E0E0EC8B30E062C0E43611F0E93611F466
:1006EC00046002C0E53791F4EAE0EC8B01FF07C02F
:1006FC00E0E0FAEC6AE97BE354D31AE01FC0E0E1D6
:10070C00F7E260E070E04DD315E018C0E83511F465
:10071C00086003C0E83709F0CBC0E0E1EC8B01FFC7
:10072C0007C0E0E0F0E060E070E13BD318E006C009
:10073C00E0E0F0E160E070E034D314E0403011F020
:10074C000F7701C041E001FF05C018D30BD31496FD
:10075C009CD50EC002FF06C011D304D3149691D5BC
:10076C0037D506C00BD3FED214968BD566277727C8
:10077C00EA87FB876C877D8702FF0FC0AD85AA23B4
:10078C002AF4FED217D5F5D2EDE2ED8BED89E030EF
:10079C0019F01F5F4F5F01C00B7F342F00FD13C09A
:1007AC00151710F4351708F00EC007FF08C002FF2C
:1007BC0004C00B7F2D89115001C020E301C020E241
:1007CC00B1D25150EDCF141780F4006102FF05C077
:1007DC00EDD209F0515011504150E0E3EA93B7D2F9
:1007EC00503009F051504150EECF312FEC89E030B0
:1007FC00A9F4303091F003FF05C0EE85FF852591FB
:10080C00C4D205C0AE85BF852D91AE87BF878AD275
:10081C00503009F051503150ECCF41C0D9D2F0D406
:10082C002E2F2A3030F003FF02C0295C01C0295A58
:10083C0001C0205D04FD1DC0213348F4D2D2A1308B
:10084C00E0E0BE07E0E08E07E0E09E0709F40BC095
:10085C00431740F4531710F000FF01C00EC020E204
:10086C0007FF07C020E3006102FF03C09FD209F01D
:10087C00515058D2503009F051503150A9D2F1D4C6
:10088C0078D2EC89AED2FF2766277727B9D489D2E4
:10089C00E889F9896A897B895ED509F0BFCF00FFA9
:1008AC0007C0503029F05150E0E2EA9350D2F9CF12
:1008BC0010E052CE34D2E5D459D5EF966F96089508
:1008CC00FF92F82E26974FD5DE0114966FD48D012A
:1008DC00E0E0EC83ED83EE83EF83DE01189666D4C3
:1008EC00D0D49BD11A930A93EFEFF1E096D1DE01AD
:1008FC00189618DE3FD52896FF900895A1D1E9915E
:10090C00F991A991B991CD0105900D920020E1F7D3
:10091C00FC01089595D1A991B991EE27FF276D910E
:10092C00662311F03196FBCF08958AD1AA27BB27F5
:10093C00E991F9910590002011F01196FBCFFD0182
:10094C000895C2D47B816A81F981E88177FB770FA6
:10095C0067FD7160972F9E5781F078F0983190F475
:10096C00AA27BB27882708948795B795A7959A95AA
:10097C00D1F7EA23FB23682305C0E8947727EE27F9
:10098C00FF2766276F77769508F4606877F9A99149
:10099C00B99189919991EA17FB076807790797FB39
:1009AC00089592D482D4CDDF85D411F41FD207C020
:1009BC00EEF71CD2A0E0B0E080E89FE3EDD22496E5
:1009CC00089541D1E0E0EA83EFE3EB83CCD4EB85EF
:1009DC00FC85EF3FAFEFFA0729F40AD2AEE6B0E0A0
:1009EC008DDF74C0EF3FAFE7FA0729F401D2AFE611
:1009FC00B0E084DF6BC0AC85AA2332F4FCD12DD2DD
:100A0C00FFD103D2EDE2EC93A885A73010F0E6E01D
:100A1C00E887188521D121F0FED165D101D2FACF1A
:100A2C0004D2C1D2EDD110E0E0E0F0E060E87FE369
:100A3C00F7D1FBD19BD360F0EED13FD1F1D11F5F49
:100A4C00173228F0D5D1A3E7B0E058DF3FC0F1CF83
:100A5C00103021F4DAD1E0E3EC9319C0FDD0B9F0F9
:100A6C00DAD141D135D1DF01CB019BDFD9D1DDD139
:100A7C0038D326D20E2FC9D143D1F0E0CCD1A8D394
:100A8C0058D2E1D2DBD125D487D2BAD1E7CFE885D1
:100A9C00E030C1F0BAD1EEE2EC93E885E150E887A2
:100AAC00EF5F81F0CBD109D1ABD1A5D109D20E2FFB
:100ABC00ACD126D1F0E0C2D18BD33BD20AD46CD2CC
:100ACC009FD1EBCFAE81BF81E0E0EC9353D42D9658
:100ADC000895AA93EA93FA93EFB7EA930895E15035
:100AEC00F0E00895E091670208950A921A92FA9242
:100AFC006A937A938A939A93AA93BA93EA93FA9302
:100B0C00EFB7EA930895E2E0F0E0E615F7050895F3
:100B1C00A0E04EDBA4E9B1E0662777270AD2BBD36D
:100B2C00A1E046DBA8E9B1E06627772702D2B3D370
:100B3C00A2E03EDBACE9B1E066277727FAD1ABD374
:100B4C000895E0919401F091950160919601709156
:100B5C0097010895E0919801F091990160919A01A3
:100B6C0070919B010895ED91FD913196FE93EE935A
:100B7C00089512D2DF01CB01E3E3F3E363EB70E4FE
:100B8C00B0D20895E0938C01F0938D0160938E01A7
:100B9C0070938F01A0919801B091990180919A0165
:100BAC0090919B010895E0939001F09391016093D3
:100BBC00920170939301E2E3F0E0FA93EA93E091EF
:100BCC008C01F0918D0160918E0170918F0177D322
:100BDC0084E076DE2696A8EBBBE035D1E2E4F0E0CB
:100BEC00FA93EA93E0919001F09191016091920156
:100BFC007091930164D384E063DE26960895E1E05E
:100C0C00F0E0E615F7050895CED1DF01CB01E0E069
:100C1C00F0E060E070E465D20895FA93EA930895E9
:100C2C00E091AC01F091AD010895D2D248D384E0AB
:100C3C0047DE26960895E091BA01F091BB01089524
:100C4C00BA93AA930895FCDF2497E0E0E883E98344
:100C5C000895E885F9850895E12F1150E030089545
:100C6C00AC81BD818E819F81E0E0F0E060E271E4B7
:100C7C00EAD1EC83FD836E837F830895EC85FD853B
:100C8C006E857F850895EC81FD816E817F81AC85B9
:100C9C00BD858E859F856AD20895AC85BD858E8570
:100CAC009F850895EDECFCEC6CEC7DE3CCD1EC87EE
:100CBC00FD876E877F873F5F0895E0E0F0E060E29C
:100CCC0071E4C1D10895EC87FD876E877F87089505
:100CDC00A0E0B0E080E09FE366D10895AC81BD81D7
:100CEC008E819F810895EDECFCEC6CEC7DE3ABD137
:100CFC000895A885B9851196A887B9871197089585
:100D0C00E02FE05DEC93E02F0895A3DF3196E887A8
:100D1C00F98708953197BF01A32FEAE00895AE81BA
:100D2C00BF8108952A93AF81B885E985FA85099525
:100D3C000895FE01E65AFF4F0190F081E02D0895D1
:100D4C003497DE01A65ABF4FED93FC930895AF8103
:100D5C00B885E985FA8509950895FE017696EE87A2
:100D6C00FF870895DE01A65ABF4F0D90BC91A02DB0
:100D7C000895EA87FB876C877D870895DADFE0CFDB
:100D8C00EA85FB856C857D850895EE87FF87089540
:100D9C00AE85BF85BFDD1E2F0895E4DF149671D29A
:100DAC00F4CFE88BF98B6A8B7B8B08950B7FED89E5
:100DBC00EA93DE01A95ABF4F0D90BC91A02DFE0104
:100DCC00E75AFF4F0190F081E02D099550300895BE
:100DDC00E889F9896A897B89AA85BB858C859D857B
:100DEC000895A889B9898A899B89089559D208954B
:100DFC00EE81FF8112CFE985FA856B857C8508959C
:100E0C00E987FA876B877C87089589DF1196AE8313
:100E1C00BF8311970895AA81BB818C819D81089510
:100E2C00EA83FB836C837D830895EA81FB816C816B
:100E3C007D81A985BA858B859C850895A985BA8500
:100E4C008B859C850895109639F08AEF90E0019778
:100E5C00F1F7A8951197C9F7089530976040704045
:100E6C0009F070580895552342F4503811F4E0FFFE
:100E7C0004C03196691F791F6BF050E8572711F4A5
:100E8C005F93CFC05F3F31F0660F000C57956795AD
:100E9C00752F08955F9300200AF0CFC0C8C050E8AA
:100EAC00192E1522880F991F9527550F879550E8F5
:100EBC00072E0522660F771F7527550F6795089526
:100ECC00689401C0E8945F93F2DF703818F07F3FAC
:100EDC0008F4A7C056E1571BAAF4519558300EF4EC
:100EEC00593030F0EFEFFFEF6FEF7FE777F91AC073
:100EFC0077275523B9F0EE0FFF1F661F771F5A9502
:100F0C00D1F710C07727583028F0EF2FF62F672F26
:100F1C005850F9CF552331F076956795F795E795AD
:100F2C005A95D1F700200AF445D15F910895689441
:100F3C0001C0E894309760407040B1F0002426F076
:100F4C00772312F4009436D1172E7EE1112032F063
:100F5C007A95EE0FFF1F661F111CF9CFEF2FF62F9E
:100F6C00612D5F938ADF5F9108954F93AF01FD016F
:100F7C00DA01AB01BC01CA01402D012C142E4F919A
:100F8C000895EA0FFB1F681F0895E095F095609592
:100F9C00EF5FFF4F6F4F08955F9381DF903871F1D2
:100FAC0050E8152604C05F937ADF903839F1703819
:100FBC0021F1572F591B2BF112F4D7DFFACF5831EF
:100FCC0018F0AA27BB278827583028F0AB2FB82F4A
:100FDC0088275850F9CF552329F08695B795A795B2
:100FEC005A95D9F7502D512572F0CBDF38F467950F
:100FFC00F795E795739513F420C0B7DF3EDF5F914B
:10100C000895D8F7FBCFEA1BFB0B680B51F010F4DB
:10101C000094BBDF662392F3EE0FFF1F661F7A95D9
:10102C00CBF7EE27FF27662777275F910895EFEF21
:10103C00FFEF6FE77FEF5F910895EFEFFFEF6FE743
:10104C007FE75F9108955F932ADF703851F39038F2
:10105C0041F301240894791F23F41CF300203AF384
:10106C00ECCF0F921F932F933F934F93112722276F
:10107C009927689FA0018F9F302D410D591F6B9FA1
:10108C00300D411D591F8E9F27D0BF9F25D06A9FC1
:10109C0023D0BE9F1DD0AF9F1BD0AE9F110D291F1B
:1010AC00391F491F591FE32FF42F652F522F4F91D2
:1010BC003F912F911F910F9066232AF0550FEE1F31
:1010CC00FF1F661F02C073954BF2CDDE5F91089532
:1010DC00100D211D391F02C0200D311D491F591F34
:1010EC0008955F93DCDE703821F411200AF49FCF51
:1010FC00A4CF903809F495CF01240894970B1BF4D6
:10110C00D4F30020F3CF792F1F932F933F934F935A
:10111C0011241127222733274427552790E2AE1795
:10112C00BF078607410730F0AE1BBF0B860B410B88
:10113C00089401C08894551F221F331F111CAA1F2D
:10114C00BB1F881F441F9A9551F7F901612D4F91D0
:10115C003F912F911F91662332F0550FEE1FFF1F09
:10116C00661F7A9543F27FDE5F91089599239AF07A
:10117C00772342F0971748F029F4AE17BF0786077C
:10118C0020F031F0989488940895989408940895D8
:10119C001894889408957723C2F7971798F3A9F7B2
:1011AC00EA17FB07680788F399F3ECCF0024AF0D1F
:1011BC00B01D0895F09560957095E195FF4F6F4FB8
:1011CC007F4F0895FE2FFF0FFF0B6F2F7F2F08957A
:1011DC006F2F660F660B762F0895002498E0AA0FE8
:1011EC00001C0E1A10F40E0E01C0A1609A95B9F7EE
:1011FC00EA2FA02D089539D0F0DF0EF4E195089573
:10120C003F934F935F93002411244427552730E2DA
:10121C00AA0FBB1F881F991F001C111C441F551FB0
:10122C000E1A1F0A460B570B28F40E0E1F1E461FD4
:10123C00571F01C0A1603A9559F7FD01BC01D001BF
:10124C00CA015F914F913F910895E894A7FF02C0A6
:10125C00A1956894E7FDE195C0DFEA2F0EF4E195C6
:10126C000895CEDFFD01BC010895E894E7FF02C0AC
:10127C00E1956894A7FF04C0A19500F8039400FAC7
:10128C000895ED91FC9111970895ED91FD916D915B
:10129C007C9113970895ED93FD936D937C93089532
:1012AC00E881F9816A817B810895A881B9818A815D
:1012BC009B810895E883F9836A837B8308957A93ED
:1012CC006A93FA93EA9308959A938A93BA93AA939A
:1012DC000895182E862F612D192E972F712D1B2EE8
:1012EC00BF2FF12D1A2EAE2FE12D0895129602D09C
:1012FC00BF011297119602D0FE2F1197E199FECFE4
:10130C00FF93FFB7F894AEBBBFBBE09AEDB3FFBF42
:10131C00FF91089507D012960F01FB0103D0F00145
:10132C001297089507D01196EF93EF2F03D0EF91FA
:10133C0011970895E19B02C0A895FCCF9FB7F89434
:10134C00AEBBBFBBE09A8DB3E81719F0EDBBE29AC8
:10135C00E19A9FBF089530976040704008955A936A
:10136C004A933A932A931A930A9308955D814C8178
:10137C003B812A8119810881089509911991089559
:00000001FF
